{
  "contractName": "SSTToken",
  "abi": [
    {
      "inputs": [],
      "stateMutability": "nonpayable",
      "type": "constructor"
    },
    {
      "anonymous": false,
      "inputs": [
        {
          "indexed": true,
          "internalType": "address",
          "name": "owner",
          "type": "address"
        },
        {
          "indexed": true,
          "internalType": "address",
          "name": "spender",
          "type": "address"
        },
        {
          "indexed": false,
          "internalType": "uint256",
          "name": "value",
          "type": "uint256"
        }
      ],
      "name": "Approval",
      "type": "event"
    },
    {
      "anonymous": false,
      "inputs": [
        {
          "indexed": true,
          "internalType": "address",
          "name": "target",
          "type": "address"
        },
        {
          "indexed": false,
          "internalType": "bool",
          "name": "lock",
          "type": "bool"
        }
      ],
      "name": "Lock",
      "type": "event"
    },
    {
      "anonymous": false,
      "inputs": [
        {
          "indexed": true,
          "internalType": "address",
          "name": "previousOwner",
          "type": "address"
        },
        {
          "indexed": true,
          "internalType": "address",
          "name": "newOwner",
          "type": "address"
        }
      ],
      "name": "OwnershipTransferred",
      "type": "event"
    },
    {
      "anonymous": false,
      "inputs": [
        {
          "indexed": true,
          "internalType": "address",
          "name": "from",
          "type": "address"
        },
        {
          "indexed": true,
          "internalType": "address",
          "name": "to",
          "type": "address"
        },
        {
          "indexed": false,
          "internalType": "uint256",
          "name": "value",
          "type": "uint256"
        }
      ],
      "name": "Transfer",
      "type": "event"
    },
    {
      "inputs": [
        {
          "internalType": "address",
          "name": "owner",
          "type": "address"
        },
        {
          "internalType": "address",
          "name": "spender",
          "type": "address"
        }
      ],
      "name": "allowance",
      "outputs": [
        {
          "internalType": "uint256",
          "name": "",
          "type": "uint256"
        }
      ],
      "stateMutability": "view",
      "type": "function",
      "constant": true
    },
    {
      "inputs": [
        {
          "internalType": "address",
          "name": "spender",
          "type": "address"
        },
        {
          "internalType": "uint256",
          "name": "amount",
          "type": "uint256"
        }
      ],
      "name": "approve",
      "outputs": [
        {
          "internalType": "bool",
          "name": "",
          "type": "bool"
        }
      ],
      "stateMutability": "nonpayable",
      "type": "function"
    },
    {
      "inputs": [
        {
          "internalType": "address",
          "name": "account",
          "type": "address"
        }
      ],
      "name": "balanceOf",
      "outputs": [
        {
          "internalType": "uint256",
          "name": "",
          "type": "uint256"
        }
      ],
      "stateMutability": "view",
      "type": "function",
      "constant": true
    },
    {
      "inputs": [],
      "name": "decimals",
      "outputs": [
        {
          "internalType": "uint8",
          "name": "",
          "type": "uint8"
        }
      ],
      "stateMutability": "view",
      "type": "function",
      "constant": true
    },
    {
      "inputs": [
        {
          "internalType": "address",
          "name": "spender",
          "type": "address"
        },
        {
          "internalType": "uint256",
          "name": "subtractedValue",
          "type": "uint256"
        }
      ],
      "name": "decreaseAllowance",
      "outputs": [
        {
          "internalType": "bool",
          "name": "",
          "type": "bool"
        }
      ],
      "stateMutability": "nonpayable",
      "type": "function"
    },
    {
      "inputs": [
        {
          "internalType": "address",
          "name": "spender",
          "type": "address"
        },
        {
          "internalType": "uint256",
          "name": "addedValue",
          "type": "uint256"
        }
      ],
      "name": "increaseAllowance",
      "outputs": [
        {
          "internalType": "bool",
          "name": "",
          "type": "bool"
        }
      ],
      "stateMutability": "nonpayable",
      "type": "function"
    },
    {
      "inputs": [],
      "name": "name",
      "outputs": [
        {
          "internalType": "string",
          "name": "",
          "type": "string"
        }
      ],
      "stateMutability": "view",
      "type": "function",
      "constant": true
    },
    {
      "inputs": [],
      "name": "owner",
      "outputs": [
        {
          "internalType": "address",
          "name": "",
          "type": "address"
        }
      ],
      "stateMutability": "view",
      "type": "function",
      "constant": true
    },
    {
      "inputs": [],
      "name": "renounceOwnership",
      "outputs": [],
      "stateMutability": "nonpayable",
      "type": "function"
    },
    {
      "inputs": [],
      "name": "symbol",
      "outputs": [
        {
          "internalType": "string",
          "name": "",
          "type": "string"
        }
      ],
      "stateMutability": "view",
      "type": "function",
      "constant": true
    },
    {
      "inputs": [],
      "name": "totalSupply",
      "outputs": [
        {
          "internalType": "uint256",
          "name": "",
          "type": "uint256"
        }
      ],
      "stateMutability": "view",
      "type": "function",
      "constant": true
    },
    {
      "inputs": [
        {
          "internalType": "address",
          "name": "sender",
          "type": "address"
        },
        {
          "internalType": "address",
          "name": "recipient",
          "type": "address"
        },
        {
          "internalType": "uint256",
          "name": "amount",
          "type": "uint256"
        }
      ],
      "name": "transferFrom",
      "outputs": [
        {
          "internalType": "bool",
          "name": "",
          "type": "bool"
        }
      ],
      "stateMutability": "nonpayable",
      "type": "function"
    },
    {
      "inputs": [
        {
          "internalType": "address",
          "name": "newOwner",
          "type": "address"
        }
      ],
      "name": "transferOwnership",
      "outputs": [],
      "stateMutability": "nonpayable",
      "type": "function"
    },
    {
      "inputs": [
        {
          "internalType": "address",
          "name": "target",
          "type": "address"
        }
      ],
      "name": "locked",
      "outputs": [
        {
          "internalType": "bool",
          "name": "",
          "type": "bool"
        }
      ],
      "stateMutability": "view",
      "type": "function",
      "constant": true
    },
    {
      "inputs": [
        {
          "internalType": "address",
          "name": "recipient",
          "type": "address"
        },
        {
          "internalType": "uint256",
          "name": "value",
          "type": "uint256"
        }
      ],
      "name": "transfer",
      "outputs": [
        {
          "internalType": "bool",
          "name": "",
          "type": "bool"
        }
      ],
      "stateMutability": "nonpayable",
      "type": "function"
    },
    {
      "inputs": [
        {
          "internalType": "address",
          "name": "to",
          "type": "address"
        },
        {
          "internalType": "uint256",
          "name": "value",
          "type": "uint256"
        }
      ],
      "name": "mint",
      "outputs": [],
      "stateMutability": "nonpayable",
      "type": "function"
    },
    {
      "inputs": [
        {
          "internalType": "uint256",
          "name": "value",
          "type": "uint256"
        }
      ],
      "name": "burn",
      "outputs": [],
      "stateMutability": "nonpayable",
      "type": "function"
    },
    {
      "inputs": [
        {
          "internalType": "address",
          "name": "target",
          "type": "address"
        },
        {
          "internalType": "bool",
          "name": "status",
          "type": "bool"
        }
      ],
      "name": "lock",
      "outputs": [],
      "stateMutability": "nonpayable",
      "type": "function"
    }
  ],
  "bytecode": "0x60806040523480156200001157600080fd5b506040518060400160405280600781526020017f537573616e746f000000000000000000000000000000000000000000000000008152506040518060400160405280600381526020017f53535400000000000000000000000000000000000000000000000000000000008152506000620000906200019c60201b60201c565b9050806000806101000a81548173ffffffffffffffffffffffffffffffffffffffff021916908373ffffffffffffffffffffffffffffffffffffffff1602179055508073ffffffffffffffffffffffffffffffffffffffff16600073ffffffffffffffffffffffffffffffffffffffff167f8be0079c531659141344cd1fd0a4f28419497f9722a3daafe3b4186f6b6457e060405160405180910390a35081600490805190602001906200014692919062000497565b5080600590805190602001906200015f92919062000497565b50505062000196620001766200019c60201b60201c565b6200018a620f4240620001a460201b60201c565b620001d860201b60201c565b620009ea565b600033905090565b6000620001b66200033e60201b60201c565b600a620001c4919062000719565b82620001d1919062000856565b9050919050565b600073ffffffffffffffffffffffffffffffffffffffff168273ffffffffffffffffffffffffffffffffffffffff1614156200024b576040517f08c379a0000000000000000000000000000000000000000000000000000000008152600401620002429062000611565b60405180910390fd5b6200025f600083836200034760201b60201c565b806003600082825462000273919062000661565b9250508190555080600160008473ffffffffffffffffffffffffffffffffffffffff1673ffffffffffffffffffffffffffffffffffffffff1681526020019081526020016000206000828254620002cb919062000661565b925050819055508173ffffffffffffffffffffffffffffffffffffffff16600073ffffffffffffffffffffffffffffffffffffffff167fddf252ad1be2c89b69c2b068fc378daa952ba7f163c4a11628f55a4df523b3ef8360405162000332919062000633565b60405180910390a35050565b60006012905090565b60011515600660008573ffffffffffffffffffffffffffffffffffffffff1673ffffffffffffffffffffffffffffffffffffffff16815260200190815260200160002060009054906101000a900460ff1615151415620003de576040517f08c379a0000000000000000000000000000000000000000000000000000000008152600401620003d590620005cd565b60405180910390fd5b60011515600660008473ffffffffffffffffffffffffffffffffffffffff1673ffffffffffffffffffffffffffffffffffffffff16815260200190815260200160002060009054906101000a900460ff161515141562000475576040517f08c379a00000000000000000000000000000000000000000000000000000000081526004016200046c90620005ef565b60405180910390fd5b6200048d8383836200049260201b62000eae1760201c565b505050565b505050565b828054620004a590620008ce565b90600052602060002090601f016020900481019282620004c9576000855562000515565b82601f10620004e457805160ff191683800117855562000515565b8280016001018555821562000515579182015b8281111562000514578251825591602001919060010190620004f7565b5b50905062000524919062000528565b5090565b5b808211156200054357600081600090555060010162000529565b5090565b60006200055660208362000650565b915062000563826200096f565b602082019050919050565b60006200057d601e8362000650565b91506200058a8262000998565b602082019050919050565b6000620005a4601f8362000650565b9150620005b182620009c1565b602082019050919050565b620005c781620008b7565b82525050565b60006020820190508181036000830152620005e88162000547565b9050919050565b600060208201905081810360008301526200060a816200056e565b9050919050565b600060208201905081810360008301526200062c8162000595565b9050919050565b60006020820190506200064a6000830184620005bc565b92915050565b600082825260208201905092915050565b60006200066e82620008b7565b91506200067b83620008b7565b9250827fffffffffffffffffffffffffffffffffffffffffffffffffffffffffffffffff03821115620006b357620006b262000904565b5b828201905092915050565b6000808291508390505b60018511156200071057808604811115620006e857620006e762000904565b5b6001851615620006f85780820291505b8081029050620007088562000962565b9450620006c8565b94509492505050565b60006200072682620008b7565b91506200073383620008c1565b9250620007627fffffffffffffffffffffffffffffffffffffffffffffffffffffffffffffffff84846200076a565b905092915050565b6000826200077c57600190506200084f565b816200078c57600090506200084f565b8160018114620007a55760028114620007b057620007e6565b60019150506200084f565b60ff841115620007c557620007c462000904565b5b8360020a915084821115620007df57620007de62000904565b5b506200084f565b5060208310610133831016604e8410600b8410161715620008205782820a9050838111156200081a576200081962000904565b5b6200084f565b6200082f8484846001620006be565b9250905081840481111562000849576200084862000904565b5b81810290505b9392505050565b60006200086382620008b7565b91506200087083620008b7565b9250817fffffffffffffffffffffffffffffffffffffffffffffffffffffffffffffffff0483118215151615620008ac57620008ab62000904565b5b828202905092915050565b6000819050919050565b600060ff82169050919050565b60006002820490506001821680620008e757607f821691505b60208210811415620008fe57620008fd62000933565b5b50919050565b7f4e487b7100000000000000000000000000000000000000000000000000000000600052601160045260246000fd5b7f4e487b7100000000000000000000000000000000000000000000000000000000600052602260045260246000fd5b60008160011c9050919050565b7f535354546f6b656e3a2066726f6d2061646472657373206973206c6f636b6564600082015250565b7f535354546f6b656e3a20746f2061646472657373206973206c6f636b65640000600082015250565b7f45524332303a206d696e7420746f20746865207a65726f206164647265737300600082015250565b61266080620009fa6000396000f3fe608060405234801561001057600080fd5b50600436106101165760003560e01c806370a08231116100a2578063a457c2d711610071578063a457c2d7146102cf578063a9059cbb146102ff578063cbf9fe5f1461032f578063dd62ed3e1461035f578063f2fde38b1461038f57610116565b806370a0823114610259578063715018a6146102895780638da5cb5b1461029357806395d89b41146102b157610116565b8063313ce567116100e9578063313ce567146101b757806339509351146101d557806340c10f191461020557806342966c68146102215780635f8f9c5d1461023d57610116565b806306fdde031461011b578063095ea7b31461013957806318160ddd1461016957806323b872dd14610187575b600080fd5b6101236103ab565b6040516101309190611bfd565b60405180910390f35b610153600480360381019061014e91906118e0565b61043d565b6040516101609190611be2565b60405180910390f35b61017161045b565b60405161017e9190611dff565b60405180910390f35b6101a1600480360381019061019c9190611855565b610465565b6040516101ae9190611be2565b60405180910390f35b6101bf610566565b6040516101cc9190611e1a565b60405180910390f35b6101ef60048036038101906101ea91906118e0565b61056f565b6040516101fc9190611be2565b60405180910390f35b61021f600480360381019061021a91906118e0565b61061b565b005b61023b6004803603810190610236919061191c565b6106ad565b005b610257600480360381019061025291906118a4565b610745565b005b610273600480360381019061026e91906117f0565b6108da565b6040516102809190611dff565b60405180910390f35b610291610923565b005b61029b610a5d565b6040516102a89190611bc7565b60405180910390f35b6102b9610a86565b6040516102c69190611bfd565b60405180910390f35b6102e960048036038101906102e491906118e0565b610b18565b6040516102f69190611be2565b60405180910390f35b610319600480360381019061031491906118e0565b610c0c565b6040516103269190611be2565b60405180910390f35b610349600480360381019061034491906117f0565b610c28565b6040516103569190611be2565b60405180910390f35b61037960048036038101906103749190611819565b610c7e565b6040516103869190611dff565b60405180910390f35b6103a960048036038101906103a491906117f0565b610d05565b005b6060600480546103ba9061212e565b80601f01602080910402602001604051908101604052809291908181526020018280546103e69061212e565b80156104335780601f1061040857610100808354040283529160200191610433565b820191906000526020600020905b81548152906001019060200180831161041657829003601f168201915b5050505050905090565b600061045161044a610eb3565b8484610ebb565b6001905092915050565b6000600354905090565b6000610472848484611086565b6000600260008673ffffffffffffffffffffffffffffffffffffffff1673ffffffffffffffffffffffffffffffffffffffff16815260200190815260200160002060006104bd610eb3565b73ffffffffffffffffffffffffffffffffffffffff1673ffffffffffffffffffffffffffffffffffffffff1681526020019081526020016000205490508281101561053d576040517f08c379a000000000000000000000000000000000000000000000000000000000815260040161053490611cdf565b60405180910390fd5b61055a85610549610eb3565b85846105559190612072565b610ebb565b60019150509392505050565b60006012905090565b600061061161057c610eb3565b84846002600061058a610eb3565b73ffffffffffffffffffffffffffffffffffffffff1673ffffffffffffffffffffffffffffffffffffffff16815260200190815260200160002060008873ffffffffffffffffffffffffffffffffffffffff1673ffffffffffffffffffffffffffffffffffffffff1681526020019081526020016000205461060c9190611e51565b610ebb565b6001905092915050565b610623610eb3565b73ffffffffffffffffffffffffffffffffffffffff16610641610a5d565b73ffffffffffffffffffffffffffffffffffffffff1614610697576040517f08c379a000000000000000000000000000000000000000000000000000000000815260040161068e90611cff565b60405180910390fd5b6106a9826106a483611308565b611330565b5050565b6106b5610eb3565b73ffffffffffffffffffffffffffffffffffffffff166106d3610a5d565b73ffffffffffffffffffffffffffffffffffffffff1614610729576040517f08c379a000000000000000000000000000000000000000000000000000000000815260040161072090611cff565b60405180910390fd5b610742610734610eb3565b61073d83611308565b611485565b50565b61074d610eb3565b73ffffffffffffffffffffffffffffffffffffffff1661076b610a5d565b73ffffffffffffffffffffffffffffffffffffffff16146107c1576040517f08c379a00000000000000000000000000000000000000000000000000000000081526004016107b890611cff565b60405180910390fd5b600073ffffffffffffffffffffffffffffffffffffffff168273ffffffffffffffffffffffffffffffffffffffff161415610831576040517f08c379a000000000000000000000000000000000000000000000000000000000815260040161082890611d5f565b60405180910390fd5b80600660008473ffffffffffffffffffffffffffffffffffffffff1673ffffffffffffffffffffffffffffffffffffffff16815260200190815260200160002060006101000a81548160ff0219169083151502179055508173ffffffffffffffffffffffffffffffffffffffff167f4167566c670b1fd1c64e646e19cb4ef63d0109f1af19955fa6555a550499dd93826040516108ce9190611be2565b60405180910390a25050565b6000600160008373ffffffffffffffffffffffffffffffffffffffff1673ffffffffffffffffffffffffffffffffffffffff168152602001908152602001600020549050919050565b61092b610eb3565b73ffffffffffffffffffffffffffffffffffffffff16610949610a5d565b73ffffffffffffffffffffffffffffffffffffffff161461099f576040517f08c379a000000000000000000000000000000000000000000000000000000000815260040161099690611cff565b60405180910390fd5b600073ffffffffffffffffffffffffffffffffffffffff1660008054906101000a900473ffffffffffffffffffffffffffffffffffffffff1673ffffffffffffffffffffffffffffffffffffffff167f8be0079c531659141344cd1fd0a4f28419497f9722a3daafe3b4186f6b6457e060405160405180910390a360008060006101000a81548173ffffffffffffffffffffffffffffffffffffffff021916908373ffffffffffffffffffffffffffffffffffffffff160217905550565b60008060009054906101000a900473ffffffffffffffffffffffffffffffffffffffff16905090565b606060058054610a959061212e565b80601f0160208091040260200160405190810160405280929190818152602001828054610ac19061212e565b8015610b0e5780601f10610ae357610100808354040283529160200191610b0e565b820191906000526020600020905b815481529060010190602001808311610af157829003601f168201915b5050505050905090565b60008060026000610b27610eb3565b73ffffffffffffffffffffffffffffffffffffffff1673ffffffffffffffffffffffffffffffffffffffff16815260200190815260200160002060008573ffffffffffffffffffffffffffffffffffffffff1673ffffffffffffffffffffffffffffffffffffffff16815260200190815260200160002054905082811015610be4576040517f08c379a0000000000000000000000000000000000000000000000000000000008152600401610bdb90611dbf565b60405180910390fd5b610c01610bef610eb3565b858584610bfc9190612072565b610ebb565b600191505092915050565b6000610c2083610c1b84611308565b61165b565b905092915050565b6000600660008373ffffffffffffffffffffffffffffffffffffffff1673ffffffffffffffffffffffffffffffffffffffff16815260200190815260200160002060009054906101000a900460ff169050919050565b6000600260008473ffffffffffffffffffffffffffffffffffffffff1673ffffffffffffffffffffffffffffffffffffffff16815260200190815260200160002060008373ffffffffffffffffffffffffffffffffffffffff1673ffffffffffffffffffffffffffffffffffffffff16815260200190815260200160002054905092915050565b610d0d610eb3565b73ffffffffffffffffffffffffffffffffffffffff16610d2b610a5d565b73ffffffffffffffffffffffffffffffffffffffff1614610d81576040517f08c379a0000000000000000000000000000000000000000000000000000000008152600401610d7890611cff565b60405180910390fd5b600073ffffffffffffffffffffffffffffffffffffffff168173ffffffffffffffffffffffffffffffffffffffff161415610df1576040517f08c379a0000000000000000000000000000000000000000000000000000000008152600401610de890611c5f565b60405180910390fd5b8073ffffffffffffffffffffffffffffffffffffffff1660008054906101000a900473ffffffffffffffffffffffffffffffffffffffff1673ffffffffffffffffffffffffffffffffffffffff167f8be0079c531659141344cd1fd0a4f28419497f9722a3daafe3b4186f6b6457e060405160405180910390a3806000806101000a81548173ffffffffffffffffffffffffffffffffffffffff021916908373ffffffffffffffffffffffffffffffffffffffff16021790555050565b505050565b600033905090565b600073ffffffffffffffffffffffffffffffffffffffff168373ffffffffffffffffffffffffffffffffffffffff161415610f2b576040517f08c379a0000000000000000000000000000000000000000000000000000000008152600401610f2290611d7f565b60405180910390fd5b600073ffffffffffffffffffffffffffffffffffffffff168273ffffffffffffffffffffffffffffffffffffffff161415610f9b576040517f08c379a0000000000000000000000000000000000000000000000000000000008152600401610f9290611c7f565b60405180910390fd5b80600260008573ffffffffffffffffffffffffffffffffffffffff1673ffffffffffffffffffffffffffffffffffffffff16815260200190815260200160002060008473ffffffffffffffffffffffffffffffffffffffff1673ffffffffffffffffffffffffffffffffffffffff168152602001908152602001600020819055508173ffffffffffffffffffffffffffffffffffffffff168373ffffffffffffffffffffffffffffffffffffffff167f8c5be1e5ebec7d5bd14f71427d1e84f3dd0314c0f7b2291e5b200ac8c7c3b925836040516110799190611dff565b60405180910390a3505050565b600073ffffffffffffffffffffffffffffffffffffffff168373ffffffffffffffffffffffffffffffffffffffff1614156110f6576040517f08c379a00000000000000000000000000000000000000000000000000000000081526004016110ed90611d3f565b60405180910390fd5b600073ffffffffffffffffffffffffffffffffffffffff168273ffffffffffffffffffffffffffffffffffffffff161415611166576040517f08c379a000000000000000000000000000000000000000000000000000000000815260040161115d90611c1f565b60405180910390fd5b611171838383611679565b6000600160008573ffffffffffffffffffffffffffffffffffffffff1673ffffffffffffffffffffffffffffffffffffffff168152602001908152602001600020549050818110156111f8576040517f08c379a00000000000000000000000000000000000000000000000000000000081526004016111ef90611c9f565b60405180910390fd5b81816112049190612072565b600160008673ffffffffffffffffffffffffffffffffffffffff1673ffffffffffffffffffffffffffffffffffffffff1681526020019081526020016000208190555081600160008573ffffffffffffffffffffffffffffffffffffffff1673ffffffffffffffffffffffffffffffffffffffff16815260200190815260200160002060008282546112969190611e51565b925050819055508273ffffffffffffffffffffffffffffffffffffffff168473ffffffffffffffffffffffffffffffffffffffff167fddf252ad1be2c89b69c2b068fc378daa952ba7f163c4a11628f55a4df523b3ef846040516112fa9190611dff565b60405180910390a350505050565b6000611312610566565b600a61131e9190611efa565b826113299190612018565b9050919050565b600073ffffffffffffffffffffffffffffffffffffffff168273ffffffffffffffffffffffffffffffffffffffff1614156113a0576040517f08c379a000000000000000000000000000000000000000000000000000000000815260040161139790611ddf565b60405180910390fd5b6113ac60008383611679565b80600360008282546113be9190611e51565b9250508190555080600160008473ffffffffffffffffffffffffffffffffffffffff1673ffffffffffffffffffffffffffffffffffffffff16815260200190815260200160002060008282546114149190611e51565b925050819055508173ffffffffffffffffffffffffffffffffffffffff16600073ffffffffffffffffffffffffffffffffffffffff167fddf252ad1be2c89b69c2b068fc378daa952ba7f163c4a11628f55a4df523b3ef836040516114799190611dff565b60405180910390a35050565b600073ffffffffffffffffffffffffffffffffffffffff168273ffffffffffffffffffffffffffffffffffffffff1614156114f5576040517f08c379a00000000000000000000000000000000000000000000000000000000081526004016114ec90611d1f565b60405180910390fd5b61150182600083611679565b6000600160008473ffffffffffffffffffffffffffffffffffffffff1673ffffffffffffffffffffffffffffffffffffffff16815260200190815260200160002054905081811015611588576040517f08c379a000000000000000000000000000000000000000000000000000000000815260040161157f90611c3f565b60405180910390fd5b81816115949190612072565b600160008573ffffffffffffffffffffffffffffffffffffffff1673ffffffffffffffffffffffffffffffffffffffff1681526020019081526020016000208190555081600360008282546115e99190612072565b92505081905550600073ffffffffffffffffffffffffffffffffffffffff168373ffffffffffffffffffffffffffffffffffffffff167fddf252ad1be2c89b69c2b068fc378daa952ba7f163c4a11628f55a4df523b3ef8460405161164e9190611dff565b60405180910390a3505050565b600061166f611668610eb3565b8484611086565b6001905092915050565b60011515600660008573ffffffffffffffffffffffffffffffffffffffff1673ffffffffffffffffffffffffffffffffffffffff16815260200190815260200160002060009054906101000a900460ff161515141561170d576040517f08c379a000000000000000000000000000000000000000000000000000000000815260040161170490611cbf565b60405180910390fd5b60011515600660008473ffffffffffffffffffffffffffffffffffffffff1673ffffffffffffffffffffffffffffffffffffffff16815260200190815260200160002060009054906101000a900460ff16151514156117a1576040517f08c379a000000000000000000000000000000000000000000000000000000000815260040161179890611d9f565b60405180910390fd5b6117ac838383610eae565b505050565b6000813590506117c0816125e5565b92915050565b6000813590506117d5816125fc565b92915050565b6000813590506117ea81612613565b92915050565b60006020828403121561180257600080fd5b6000611810848285016117b1565b91505092915050565b6000806040838503121561182c57600080fd5b600061183a858286016117b1565b925050602061184b858286016117b1565b9150509250929050565b60008060006060848603121561186a57600080fd5b6000611878868287016117b1565b9350506020611889868287016117b1565b925050604061189a868287016117db565b9150509250925092565b600080604083850312156118b757600080fd5b60006118c5858286016117b1565b92505060206118d6858286016117c6565b9150509250929050565b600080604083850312156118f357600080fd5b6000611901858286016117b1565b9250506020611912858286016117db565b9150509250929050565b60006020828403121561192e57600080fd5b600061193c848285016117db565b91505092915050565b61194e816120a6565b82525050565b61195d816120b8565b82525050565b600061196e82611e35565b6119788185611e40565b93506119888185602086016120fb565b611991816121be565b840191505092915050565b60006119a9602383611e40565b91506119b4826121dc565b604082019050919050565b60006119cc602283611e40565b91506119d78261222b565b604082019050919050565b60006119ef602683611e40565b91506119fa8261227a565b604082019050919050565b6000611a12602283611e40565b9150611a1d826122c9565b604082019050919050565b6000611a35602683611e40565b9150611a4082612318565b604082019050919050565b6000611a58602083611e40565b9150611a6382612367565b602082019050919050565b6000611a7b602883611e40565b9150611a8682612390565b604082019050919050565b6000611a9e602083611e40565b9150611aa9826123df565b602082019050919050565b6000611ac1602183611e40565b9150611acc82612408565b604082019050919050565b6000611ae4602583611e40565b9150611aef82612457565b604082019050919050565b6000611b07602983611e40565b9150611b12826124a6565b604082019050919050565b6000611b2a602483611e40565b9150611b35826124f5565b604082019050919050565b6000611b4d601e83611e40565b9150611b5882612544565b602082019050919050565b6000611b70602583611e40565b9150611b7b8261256d565b604082019050919050565b6000611b93601f83611e40565b9150611b9e826125bc565b602082019050919050565b611bb2816120e4565b82525050565b611bc1816120ee565b82525050565b6000602082019050611bdc6000830184611945565b92915050565b6000602082019050611bf76000830184611954565b92915050565b60006020820190508181036000830152611c178184611963565b905092915050565b60006020820190508181036000830152611c388161199c565b9050919050565b60006020820190508181036000830152611c58816119bf565b9050919050565b60006020820190508181036000830152611c78816119e2565b9050919050565b60006020820190508181036000830152611c9881611a05565b9050919050565b60006020820190508181036000830152611cb881611a28565b9050919050565b60006020820190508181036000830152611cd881611a4b565b9050919050565b60006020820190508181036000830152611cf881611a6e565b9050919050565b60006020820190508181036000830152611d1881611a91565b9050919050565b60006020820190508181036000830152611d3881611ab4565b9050919050565b60006020820190508181036000830152611d5881611ad7565b9050919050565b60006020820190508181036000830152611d7881611afa565b9050919050565b60006020820190508181036000830152611d9881611b1d565b9050919050565b60006020820190508181036000830152611db881611b40565b9050919050565b60006020820190508181036000830152611dd881611b63565b9050919050565b60006020820190508181036000830152611df881611b86565b9050919050565b6000602082019050611e146000830184611ba9565b92915050565b6000602082019050611e2f6000830184611bb8565b92915050565b600081519050919050565b600082825260208201905092915050565b6000611e5c826120e4565b9150611e67836120e4565b9250827fffffffffffffffffffffffffffffffffffffffffffffffffffffffffffffffff03821115611e9c57611e9b612160565b5b828201905092915050565b6000808291508390505b6001851115611ef157808604811115611ecd57611ecc612160565b5b6001851615611edc5780820291505b8081029050611eea856121cf565b9450611eb1565b94509492505050565b6000611f05826120e4565b9150611f10836120ee565b9250611f3d7fffffffffffffffffffffffffffffffffffffffffffffffffffffffffffffffff8484611f45565b905092915050565b600082611f555760019050612011565b81611f635760009050612011565b8160018114611f795760028114611f8357611fb2565b6001915050612011565b60ff841115611f9557611f94612160565b5b8360020a915084821115611fac57611fab612160565b5b50612011565b5060208310610133831016604e8410600b8410161715611fe75782820a905083811115611fe257611fe1612160565b5b612011565b611ff48484846001611ea7565b9250905081840481111561200b5761200a612160565b5b81810290505b9392505050565b6000612023826120e4565b915061202e836120e4565b9250817fffffffffffffffffffffffffffffffffffffffffffffffffffffffffffffffff048311821515161561206757612066612160565b5b828202905092915050565b600061207d826120e4565b9150612088836120e4565b92508282101561209b5761209a612160565b5b828203905092915050565b60006120b1826120c4565b9050919050565b60008115159050919050565b600073ffffffffffffffffffffffffffffffffffffffff82169050919050565b6000819050919050565b600060ff82169050919050565b60005b838110156121195780820151818401526020810190506120fe565b83811115612128576000848401525b50505050565b6000600282049050600182168061214657607f821691505b6020821081141561215a5761215961218f565b5b50919050565b7f4e487b7100000000000000000000000000000000000000000000000000000000600052601160045260246000fd5b7f4e487b7100000000000000000000000000000000000000000000000000000000600052602260045260246000fd5b6000601f19601f8301169050919050565b60008160011c9050919050565b7f45524332303a207472616e7366657220746f20746865207a65726f206164647260008201527f6573730000000000000000000000000000000000000000000000000000000000602082015250565b7f45524332303a206275726e20616d6f756e7420657863656564732062616c616e60008201527f6365000000000000000000000000000000000000000000000000000000000000602082015250565b7f4f776e61626c653a206e6577206f776e657220697320746865207a65726f206160008201527f6464726573730000000000000000000000000000000000000000000000000000602082015250565b7f45524332303a20617070726f766520746f20746865207a65726f20616464726560008201527f7373000000000000000000000000000000000000000000000000000000000000602082015250565b7f45524332303a207472616e7366657220616d6f756e742065786365656473206260008201527f616c616e63650000000000000000000000000000000000000000000000000000602082015250565b7f535354546f6b656e3a2066726f6d2061646472657373206973206c6f636b6564600082015250565b7f45524332303a207472616e7366657220616d6f756e742065786365656473206160008201527f6c6c6f77616e6365000000000000000000000000000000000000000000000000602082015250565b7f4f776e61626c653a2063616c6c6572206973206e6f7420746865206f776e6572600082015250565b7f45524332303a206275726e2066726f6d20746865207a65726f2061646472657360008201527f7300000000000000000000000000000000000000000000000000000000000000602082015250565b7f45524332303a207472616e736665722066726f6d20746865207a65726f20616460008201527f6472657373000000000000000000000000000000000000000000000000000000602082015250565b7f535354546f6b656e3a20746172676574206164647265737320746865207a657260008201527f6f20616464726573730000000000000000000000000000000000000000000000602082015250565b7f45524332303a20617070726f76652066726f6d20746865207a65726f2061646460008201527f7265737300000000000000000000000000000000000000000000000000000000602082015250565b7f535354546f6b656e3a20746f2061646472657373206973206c6f636b65640000600082015250565b7f45524332303a2064656372656173656420616c6c6f77616e63652062656c6f7760008201527f207a65726f000000000000000000000000000000000000000000000000000000602082015250565b7f45524332303a206d696e7420746f20746865207a65726f206164647265737300600082015250565b6125ee816120a6565b81146125f957600080fd5b50565b612605816120b8565b811461261057600080fd5b50565b61261c816120e4565b811461262757600080fd5b5056fea2646970667358221220511929e9e3d713c510db37946fd409b730201d9b98cc145b06a4f9efe676b31b64736f6c63430008030033",
  "immutableReferences": {},
  "source": "// SPDX-License-Identifier: MIT\npragma solidity ^0.8.0;\n\nimport \"@openzeppelin/contracts/utils/Context.sol\";\nimport \"@openzeppelin/contracts/access/Ownable.sol\";\nimport \"@openzeppelin/contracts/token/ERC20/ERC20.sol\";\n\n/**\n * @title Susanto Token\n * @author Susanto Wu\n * @dev ERC20 token implementation\n */\ncontract SSTToken is Context, Ownable, ERC20 {\n    mapping(address => bool) private _locked;\n\n    constructor() Ownable() ERC20(\"Susanto\", \"SST\") {\n        _mint(_msgSender(), _amount(1000000));\n    }\n\n    /**\n     * @dev Emitted when address lock or unlock.\n     */\n    event Lock(address indexed target, bool lock);\n\n    /**\n     * @dev Returns address lock status.\n     */\n    function locked(address target) public view returns (bool) {\n        return _locked[target];\n    }\n\n    /**\n     * @dev See {ERC20-transfer}.\n     *\n     * Override to provide decimal conversion.\n     */\n    function transfer(address recipient, uint256 value)\n        public\n        override\n        returns (bool)\n    {\n        return super.transfer(recipient, _amount(value));\n    }\n\n    /**\n     * @dev Add more token into `to` address.\n     * Requirements:\n     *\n     * - only contract owner can mint.\n     * @param to beneficiary address\n     * @param value amount of token\n     */\n    function mint(address to, uint256 value) public onlyOwner {\n        _mint(to, _amount(value));\n    }\n\n    /**\n     * @dev Reduce token supply from caller.\n     * Requirements:\n     *\n     * - only contract owner can burn.\n     * @param value amount of token\n     */\n    function burn(uint256 value) public onlyOwner {\n        _burn(_msgSender(), _amount(value));\n    }\n\n    /**\n     * @dev Lock the target address to prevent transfer activity.\n     * Requirements:\n     *\n     * - only contract owner can lock address.\n     * @param target address to be lock\n     * @param status lock or unlock\n     */\n    function lock(address target, bool status) public onlyOwner {\n        require(\n            target != address(0),\n            \"SSTToken: target address the zero address\"\n        );\n\n        _locked[target] = status;\n\n        emit Lock(target, status);\n    }\n\n    /**\n     * @dev Calculate token smallest unit based on (18) decimals.\n     * @param value amount of token\n     * @return smallest unit\n     */\n    function _amount(uint256 value) private view returns (uint256) {\n        return value * 10**decimals();\n    }\n\n    /**\n     * @dev Override before transfer to check lock address.\n     * Requirements:\n     *\n     * - `from` address must not lock\n     * - `to` adddress must not lock.\n     */\n    function _beforeTokenTransfer(\n        address from,\n        address to,\n        uint256 amount\n    ) internal override(ERC20) {\n        require(_locked[from] != true, \"SSTToken: from address is locked\");\n        require(_locked[to] != true, \"SSTToken: to address is locked\");\n        super._beforeTokenTransfer(from, to, amount);\n    }\n}\n",
  "sourcePath": "/Users/susantowu/Projects/sample-erc20-token/contracts/SSTToken.sol",
  "compiler": {
    "name": "solc",
    "version": "0.8.3+commit.8d00100c.Emscripten.clang"
  },
  "schemaVersion": "3.3.4",
  "updatedAt": "2021-04-09T10:05:51.185Z",
  "networkType": "ethereum",
  "devdoc": {
    "author": "Susanto Wu",
    "details": "ERC20 token implementation",
    "events": {
      "Lock(address,bool)": {
        "details": "Emitted when address lock or unlock."
      }
    },
    "kind": "dev",
    "methods": {
      "allowance(address,address)": {
        "details": "See {IERC20-allowance}."
      },
      "approve(address,uint256)": {
        "details": "See {IERC20-approve}. Requirements: - `spender` cannot be the zero address."
      },
      "balanceOf(address)": {
        "details": "See {IERC20-balanceOf}."
      },
      "burn(uint256)": {
        "details": "Reduce token supply from caller. Requirements: - only contract owner can burn.",
        "params": {
          "value": "amount of token"
        }
      },
      "decimals()": {
        "details": "Returns the number of decimals used to get its user representation. For example, if `decimals` equals `2`, a balance of `505` tokens should be displayed to a user as `5,05` (`505 / 10 ** 2`). Tokens usually opt for a value of 18, imitating the relationship between Ether and Wei. This is the value {ERC20} uses, unless this function is overloaded; NOTE: This information is only used for _display_ purposes: it in no way affects any of the arithmetic of the contract, including {IERC20-balanceOf} and {IERC20-transfer}."
      },
      "decreaseAllowance(address,uint256)": {
        "details": "Atomically decreases the allowance granted to `spender` by the caller. This is an alternative to {approve} that can be used as a mitigation for problems described in {IERC20-approve}. Emits an {Approval} event indicating the updated allowance. Requirements: - `spender` cannot be the zero address. - `spender` must have allowance for the caller of at least `subtractedValue`."
      },
      "increaseAllowance(address,uint256)": {
        "details": "Atomically increases the allowance granted to `spender` by the caller. This is an alternative to {approve} that can be used as a mitigation for problems described in {IERC20-approve}. Emits an {Approval} event indicating the updated allowance. Requirements: - `spender` cannot be the zero address."
      },
      "lock(address,bool)": {
        "details": "Lock the target address to prevent transfer activity. Requirements: - only contract owner can lock address.",
        "params": {
          "status": "lock or unlock",
          "target": "address to be lock"
        }
      },
      "locked(address)": {
        "details": "Returns address lock status."
      },
      "mint(address,uint256)": {
        "details": "Add more token into `to` address. Requirements: - only contract owner can mint.",
        "params": {
          "to": "beneficiary address",
          "value": "amount of token"
        }
      },
      "name()": {
        "details": "Returns the name of the token."
      },
      "owner()": {
        "details": "Returns the address of the current owner."
      },
      "renounceOwnership()": {
        "details": "Leaves the contract without owner. It will not be possible to call `onlyOwner` functions anymore. Can only be called by the current owner. NOTE: Renouncing ownership will leave the contract without an owner, thereby removing any functionality that is only available to the owner."
      },
      "symbol()": {
        "details": "Returns the symbol of the token, usually a shorter version of the name."
      },
      "totalSupply()": {
        "details": "See {IERC20-totalSupply}."
      },
      "transfer(address,uint256)": {
        "details": "See {ERC20-transfer}. Override to provide decimal conversion."
      },
      "transferFrom(address,address,uint256)": {
        "details": "See {IERC20-transferFrom}. Emits an {Approval} event indicating the updated allowance. This is not required by the EIP. See the note at the beginning of {ERC20}. Requirements: - `sender` and `recipient` cannot be the zero address. - `sender` must have a balance of at least `amount`. - the caller must have allowance for ``sender``'s tokens of at least `amount`."
      },
      "transferOwnership(address)": {
        "details": "Transfers ownership of the contract to a new account (`newOwner`). Can only be called by the current owner."
      }
    },
    "title": "Susanto Token",
    "version": 1
  },
  "userdoc": {
    "kind": "user",
    "methods": {},
    "version": 1
  }
}